:020000040000FA
:020000000528D1
:080008001D288E018F019001FB
:10001000083092000730910090308B0083128601E7
:100020008316833086001F308500FF3081008312E5
:1000300086010613061500001B28111822289118A6
:100040002D2838288E0D86180E14861C0E10920B43
:10005000682808309200111068288F0D86180F1438
:10006000861C0F10920B68280830920091106828A7
:10007000900D86181014861C1010920B682806111B
:10008000083092000730910090188612901C861656
:10009000101A4D28101D59285328901E0613901A27
:1000A000061706156828861F6228061206166A209B
:1000B00053288E0B5E288F0B5928622806120616CD
:1000C0006A20592810180617101C061306156828F0
:1000D0008B100900FC308C0015308D008D0B6E28C4
:0600E0008C0B6D280800E6
:02400E00F23F7F
:00000001FF
