:020000040000FA
:020000000528D1
:080008002F28272090308B0007
:10001000831286018316833086001A308500FF30F4
:100020008100831286010613061505140511FF30A1
:100030009300FF308C00FF308D008D0B1D288C0B42
:100040001B28930B1928851C1728051417288E01C7
:100050008F019001083092000730910008001118BC
:10006000342891183F284A288E0D86180E14861CB5
:100070000E10920B842808309200111084288F0DE6
:1000800086180F14861C0F10920B842808309200DB
:1000900091108428900D86181014861C1010920B55
:1000A000842806110830920007309100FF30930039
:1000B00090188616901C8612101A6128101D75283B
:1000C0006F28901E0613901A0617101F0510101B9C
:1000D0000514901F0511901B051506158428861F11
:1000E0007E280612061686206F288E0B7A288F0B24
:1000F00075287E2806120616862075281018061701
:10010000101C0613061584288B100900FC308C0087
:0E01100015308D008D0B8A288C0B8928080075
:02400E00F23F7F
:00000001FF
