:020000040000FA
:020000000528D1
:080008001E288E018F019001FA
:10001000083092000730910090308B0083128601E7
:1000200083168330860003308500FF308100831201
:10003000860185010613061500001C28911B9E28C9
:10004000111A2928911A34281118402891184B2880
:1000500056288E1B06158E1F06118E0D920BB0288A
:10006000093092001112B0288F1B06158F1F061140
:100070008F0D920BB0280830920091120615B0280F
:100080008E0D86180E14861C0E10920BB0280830A8
:1000900092001110B0288F0D86180F14861C0F10B7
:1000A000920BB028083092009110B028900D86185D
:1000B0001014861C1010920BB02806110830920004
:1000C0000730910090188616901C8612101A6F281F
:1000D0008F1B972810197D2890198528A128901E1C
:1000E0000613901A0617101F0511101B0515901FF7
:1000F0008511901B85150615B02890198528861F37
:10010000AA2806120616B2207F28051892288518FC
:1001100092288E0B8E288F0B8528922806120616A1
:10012000B2208528101DAA2811169116AA2806119A
:1001300005180615851806159117B0289113061590
:10014000B0288E0BA6288F0BA128AA280612061607
:10015000B220A12810180617101C06130615B02887
:100160008B100900FC308C0015308D008D0BB628EB
:060170008C0BB52808000D
:02400E00F23F7F
:00000001FF
